:02000000F82CDA
:10000800FF00030E8301CC000A08CD008A017008A6
:10001800A1000B1D2228B30A0319B40A00303406C4
:10002800031D182805303306031D1F2804308506D4
:10003800B301B4013514633081000B112108F000BD
:0E0048004D088A004C0E8300FF0E7F0E09004B
:0E005600F201F101F001F801F30100300800A1
:100064007B15FB1F3C280130F300F201F101F00184
:08007400FA0DF20CFF30080048
:08007C00FA1FF2130030080026
:10008400FB14FB1F4C28FF30F300F200F100F000DA
:08009400FA0DF20CFF30080028
:10009C00710DF80DF90D7408F8027508031C750F35
:1000AC00F902F00DF10D0F30FC00710DF80DF90D8A
:1000BC007408701C6728F8027508031C750FF90288
:1000CC006C28F80775080318750FF907F00DF10D7A
:1000DC00FC0B5B28701878287408F807750803184F
:0800EC00750FF9070000080080
:1000F400A0017208031D8F287108F2007008F10036
:10010400F001A0157208031D8F287108F200F10197
:10011400A0112016720803199D282008F302031D5C
:10012400031CA1280310F21BA528F00DF10DF20DFC
:10013400F30B9528A1280130FC002B20A8280230BD
:0E014400FC003220A8280430FC003E200800F9
:100152007C18DF28FC18B0287C19FE28A928A001E9
:100162007208031DD0287108F2007008F1007808A7
:10017200F000F801A0157208031DD0287108F200E2
:100182007008F100F001A01120167208031DD0289A
:100192007108F200F101A01572080319F228200873
:1001A200F302031D031CF6280310F21BDF28F80DCF
:1001B200F00DF10DF20DF30BD628F6287B1B701C07
:1001C200FA28F81FFA28F00A0319F10A0319F20AA9
:1001D200031DFA28F20CF10CF00CF30A0319FE28A5
:1001E200FA280130FC002B2001290230FC003220C9
:1001F20001290430FC003E2001290830FC00422085
:0402020000000800F0
:06020600FB15FF300800AB
:0E020C001D3083120313FD00FD0B0A290800AC
:10021A00831603139818132900000D2983125B080B
:04022A00990008002F
:0E022E00831203134B088A004A08820008005E
:10023C008316031398169030831298008316871731
:10024C00071383128C1E2D291A08F0002729080089
:10025C00C730831203139F052208F000F00D7010B5
:10026C00F00D7010F00D701070089F0406211F1512
:10027C001F1D422900003E291E08F100F0018316C3
:0A028C001E08F0040030F104080021
:10029600831203137008F8007108F000F101F201EF
:1002A600F301FB01FC019630F300FA01F01F61290E
:1002B600F809F009F80A0319F00AFA177008F100AC
:0C02C6007808F000F801F2017A2008002E
:1002D200831203137408003A031D84297508003A37
:1002E200031D84297608003A031D84297708003A01
:1002F200031D8429FF30F000FF30F1007F30F2004F
:10030200FF30F3001F2A8312031377080319132AFD
:1003120073080319162A720876068039FA00F21752
:10032200F617A0017208F8007108FC007008FD00C1
:100332007408FD027508031C750FFC027608031C85
:10034200760FF802F801FC01FD01031CAF2903102E
:10035200F20CF10CF00CF80C0130A0007708F3025B
:10036200031CB9297E302007F3070318192ABE2976
:100372007E302007F307031C1C2A1830FA07FD0DF4
:10038200FC0DF80DF00DF10DF20DA00D7408F00248
:100392007508031C750FF1027608031C760FF20232
:1003A200760DA004201CD7297D14E2297408F007D9
:1003B20075080318750FF10776080318760AF20715
:1003C2007D10FA031F307A05031DC0297B1B7D1C9B
:1003D200092A0310F00DF10DF20DA00D7408F002C0
:1003E2007508031C750FF1027608031C760FF202E2
:1003F200760D20040139FD070318FC0A0319F80AD7
:10040200031D092AF80CFC0CFD0CF30A0319192A26
:10041200FA1FF8137808F2007C08F1007D08F0005A
:1004220000301E2A013003211E2A02302B201E2AF0
:0E043200043042201E2A08303220000008004C
:10044000831203137408003A031D2F2A7508003A1B
:10045000031D2F2AFF30F0007F30F100882A83121D
:100460000313FD01F901F801710870040319003448
:1004700071087506FA00FA1BFD09FB01F51F452AF4
:10048000F409F509F40A0319F50AF11F4C2AF009D9
:10049000F109F00A0319F10A71087504FA00FA1B50
:1004A000612A4E207B18742AFD1F0034F009F109DF
:1004B000F00A0319F10AF809F909F80A0319F90A07
:1004C0000034F51F702AF11B6C2A7108F9007008BE
:1004D000F800F101F001542AF101F001F00A0034B2
:1004E000F109F009FB0A512AF80A0319F90A7408FC
:1004F0007802031D542A75087902031D542AF90154
:10050000F801F00A0319F10AF11F542A0000FF3420
:020510000800E1
:100512008312031372087606A000F801F90173082A
:100522007702031CAC2A7708FD007308F7007D08E8
:10053200F3007608FD007208F6007D08F2007508E7
:10054200FD007108F5007D08F1007408FD007008D7
:10055200F4007D08F00077080319252B7208FA00D1
:10056200F217F61777087302F7000319DF2A08302B
:100572007702031CD52AF7007408F9007508F40005
:100582007608F500F60108307702031CD52AF70039
:100592007408F9007508F400F50108307702031CAD
:1005A200D52A7A08F200252B77080319DF2A0310CF
:1005B200F60CF50CF40CF90CF70BD82AA01FEC2A58
:1005C200F909F409F509F609F90A0319F40A0319F4
:1005D200F50A0319F60A7908F80774080318740F64
:1005E200F00775080318750FF10776080318760FE0
:1005F200F207A01B052B031C152BF20CF10CF00CBF
:10060200F80CF30F152B212B0318192BF809F009FD
:10061200F109F209F80A0319F00A0319F10A031998
:10062200F20A8030FA061D2B0130FC00A920272B8C
:100632000230FC00A920272B0430FC007A20272B53
:100642000830FC004220272B0030FC00000008008C
:100652007B14FB1F342BF201FA1FFF30F200F10072
:0A066200F000FA0DF20CFF30080062
:10066C00E83083120313F4000330F5005308F00054
:10067C005408F10020220A30F4000030F50020224A
:10068C007808F0007908F10030307007D800643039
:10069C00F4000030F5005308F0005408F10020225B
:1006AC000A30F4000030F50020227808F0007908B8
:1006BC00F10030307007D7000A30F4000030F5003C
:1006CC005308F0005408F10020220A30F4000030E6
:1006DC00F50020227808F0007908F100303070071E
:1006EC00D6000A30F4000030F5005308F00054082E
:1006FC00F10020227808F0007908F1003030700702
:10070C00D5005208DB000D213A30DB000D215808D2
:10071C00DB000D215708DB000D215608DB000D21F5
:0E072C005508DB000D213B30DB000D210800DD
:10073A0083120313FB01FC01FA0173080319DC2B72
:10074A00F2178E30F302F31BAD2B0319AD2BDF2BFF
:10075A00F309F30A08307302031CC22BF300F10DEC
:10076A007208F100F20108307302031CC22BF10D6A
:10077A00F1017308031D0310CA2B73080319CA2B4E
:10078A000310F20CF10CF30BC52B7B1B711CD42B41
:10079A00031CD42BF10A0319F20AF21BEB2BFA1FE2
:1007AA00EE2BF209F109F10A0319F20AEE2BF20112
:1007BA00F101EE2B7B14FB1FF12BF201FA1FF12B37
:1007CA00FF30F200F100FA0DF20CF12B0130FC00BF
:1007DA00F32B0030FC00F32BFF30FC00FC0803195C
:0E07EA00F72B29237108F0007208F1000800B7
:1007F80083120313D601D701D801D9013908003C67
:10080800031D082C3808073C03180C2CB801B90143
:100818003808F000F00D701070083A3EDA005208FF
:10082800A2002E2183125A088400700880007108E3
:10083800840A8000D401D50180305506F00080304C
:100848007002031D292C083054020318512C540837
:10085800F0005508F100F00DF10D70103A30F00776
:10086800700884000008F000840A0008F1004B2199
:100878005608F4005708F5005808F6005908F7001C
:1008880089227008D6007108D7007208D80073084A
:10089800D900D40A0319D50A202CB80A0319B90AB1
:1008A8000030F4000030F5000030F6008230F70028
:1008B8005608F0005708F1005808F2005908F300EC
:0408C800692108009A
:1008CC00E0308B0063308312031381008730831672
:1008DC00810007309C00013083129F008D308316FD
:1008EC009F00FB308500FF30831285006730831634
:0808FC00990018151E210800E7
:1009040017218A110A128000840ACA0A0319CB0A21
:08091400F003031D822C080012
:10091C0083120313D601D701D801D9013708003C43
:10092C00031D9A2C3608073C03189E2CB601B70100
:10093C003608F000F00D70107008233EDA005208F3
:10094C00A2002E2183125A088400700880007108BE
:10095C00840A8000D401D50180305506F000803027
:10096C007002031DBB2C083054020318E32C5408EE
:10097C00F0005508F100F00DF10D70102330F00768
:10098C00700884000008F000840A0008F1004B2174
:10099C005608F4005708F5005808F6005908F700F7
:1009AC0089227008D6007108D7007208D800730825
:1009BC00D900D40A0319D50AB22CB60A0319B70AFE
:1009CC000030F4000030F5000030F6008230F70003
:1009DC005608F0005708F1005808F2005908F300C7
:0409EC006921080075
:1009F000582583120313CE01CF01D001D101662403
:100A0000351C292D3510D201D301FC239D237008FC
:100A1000D0007108D1000130D2000030D3008E2404
:100A20009D237008CE007108CF005630D2005008C8
:100A3000D3005108D40036234930D2004E08D300E9
:100A40004F08D40036230D30DB000D210A30DB00C7
:060A50000D21002D2A2DEE
:100AB00023308400273083120313F0003030CA0043
:080AC0000530CB008224080080
:100A600000340034003400340034003400340034E6
:100A700000340034003400340034003400340034D6
:040A8000003400340A
:020A840000343C
:040A86000034003404
:040A8A000034003400
:100A8E0000340034003400340034003400340034B8
:100A9E0000340034003400340034003400340034A8
:02400E004A2F37
:00000001FF
