:02000000502D81
:10000800FF00030E8301CE000A08CF008A017008A2
:10001800A1002B25342540252108F0004F088A002F
:0A0028004E0E8300FF0E7F0E09004C
:0E003200F201F101F001F801F30100300800C5
:100040007B15FB1F2A280130F300F201F101F001BA
:08005000FA0DF20CFF3008006C
:08005800FA1FF213003008004A
:10006000FB14FB1F3A28FF30F300F200F100F00010
:08007000FA0DF20CFF3008004C
:0E0078001D3083120313FD00FD0B402808000D
:10008600710DF80DF90D7408F8027508031C750F4B
:10009600F902F00DF10D0F30FC00710DF80DF90DA0
:1000A6007408701C5C28F8027508031C750FF902A9
:1000B6006128F80775080318750FF907F00DF10D9B
:1000C600FC0B502870186D287408F807750803187B
:0800D600750FF9070000080096
:1000DE007B14FB1F7A28F201FA1FFF30F200F100A9
:0A00EE00F000FA0DF20CFF300800DC
:0600F800FB15FF300800BB
:1000FE007C18B528FC1886287C19D4287F28A001E6
:10010E007208031DA6287108F2007008F100780825
:10011E00F000F801A0157208031DA6287108F20060
:10012E007008F100F001A01120167208031DA62818
:10013E007108F200F101A01572080319C8282008F1
:10014E00F302031D031CCC280310F21BB528F80D77
:10015E00F00DF10DF20DF30BAC28CC287B1B701CAF
:10016E00D028F81FD028F00A0319F10A0319F20A51
:10017E00031DD028F20CF10CF00CF30A0319D4284D
:10018E00D0280130FC001920D7280230FC00202096
:10019E00D7280430FC002C20D7280830FC00302053
:0401AE000000080045
:1001B200A0017208031DEE287108F2007008F10018
:1001C200F001A0157208031DEE287108F200F1017A
:1001D200A011201672080319FC282008F302031D3F
:1001E200031C00290310F21B0429F00DF10DF20D7E
:1001F200F30BF42800290130FC00192007290230F2
:0E020200FC00202007290430FC002C200800FE
:100210008312031372087606A000F801F90173082F
:100220007702031C2B297708FD007308F7007D086F
:10023000F3007608FD007208F6007D08F2007508EC
:10024000FD007108F5007D08F1007408FD007008DC
:10025000F4007D08F00077080319A4297208FA0059
:10026000F217F61777087302F70003195E290830B2
:100270007702031C5429F7007408F9007508F4008C
:100280007608F500F60108307702031C5429F700C0
:100290007408F9007508F400F50108307702031CB2
:1002A00054297A08F200A429770803195E2903105B
:1002B000F60CF50CF40CF90CF70B5729A01F6B2961
:1002C000F909F409F509F609F90A0319F40A0319F9
:1002D000F50A0319F60A7908F80774080318740F69
:1002E000F00775080318750FF10776080318760FE5
:1002F000F207A01B8429031C9429F20CF10CF00CCA
:10030000F80CF30F9429A02903189829F809F0098B
:10031000F109F209F80A0319F00A0319F10A03199D
:10032000F20A8030FA069C290130FC007F20A629C1
:100330000230FC007F20A6290430FC00D920A62929
:100340000830FC003020A6290030FC000000080026
:10035000C730831203139F052208F000F00D7010C0
:10036000F00D7010F00D701070089F043C201F15E8
:100370001F1DBC290000B8291E08F100F0018316DA
:0A0380001E08F0040030F10408002C
:10038A0083160313981690308312980083168717E2
:10039A00071383128C1ED4291A08F000CE290800EC
:1003AA00831203137408003A031DF0297508003AF2
:1003BA00031DF0297608003A031DF0297708003A50
:1003CA00031DF029FF30F000FF30F1007F30F2000A
:1003DA00FF30F3008B2A83120313770803197F2A4D
:1003EA0073080319822A720876068039FA00F2170E
:1003FA00F617A0017208F8007108FC007008FD00E9
:10040A007408FD027508031C750FFC027608031CAC
:10041A00760FF802F801FC01FD01031C1B2A0310E8
:10042A00F20CF10CF00CF80C0130A0007708F30282
:10043A00031C252A7E302007F3070318852A2A2A57
:10044A007E302007F307031C882A1830FA07FD0DAF
:10045A00FC0DF80DF00DF10DF20DA00D7408F0026F
:10046A007508031C750FF1027608031C760FF20259
:10047A00760DA004201C432A7D144E2A7408F00726
:10048A0075080318750FF10776080318760AF2073C
:10049A007D10FA031F307A05031D2C2A7B1B7D1C55
:1004AA00752A0310F00DF10DF20DA00D7408F0027B
:1004BA007508031C750FF1027608031C760FF20209
:1004CA00760D20040139FD070318FC0A0319F80AFE
:1004DA00031D752AF80CFC0CFD0CF30A0319852A76
:1004EA00FA1FF8137808F2007C08F1007D08F00082
:1004FA0000308A2A01307C208A2A023019208A2A6E
:0E050A00043030208A2A08302020000008002B
:10051800831203137008F8007108F000F101F2016A
:10052800F301FB01FC019630F300FA01F01FA22A47
:10053800F809F009F80A0319F00AFA177008F10027
:0C0548007808F000F801F201D92008004A
:1005540083120313FB0173080319E72A7208FA00D4
:10056400F2178E30F302F31FEA2AF309F30A083074
:100574007302031CCD2AF300F10D7208F100F2019D
:1005840008307302031CCD2AF300F10DF101730846
:10059400031D0310D52A73080319D52A0310F20C7E
:1005A400F10CF30BD02A7B1B711CDF2A031CDF2AFE
:1005B400F10A0319F20AF21BF62AFA1FF92AF209C0
:1005C400F109F10A0319F20AF92AF201F101F92AEF
:1005D4007B14FB1FFC2AF201FA1FFC2AFF30F200F5
:1005E400F100FA0DF20CFC2A0130FC00FE2A003066
:1005F400FC00FE2AFF30FC00FC080319022B6F20CC
:0A0604007108F0007208F100080010
:10060E00831203137408003A031D162B7508003A63
:10061E00031D162BFF30F0007F30F1006F2B83127D
:10062E000313FD01F901F801710870040319003478
:10063E0071087506FA00FA1BFD09FB01F51F2C2B3C
:10064E00F409F509F40A0319F50AF11F332BF00921
:10065E00F109F00A0319F10A71087504FA00FA1B80
:10066E00482B43207B185B2BFD1F0034F009F1094A
:10067E00F00A0319F10AF809F909F80A0319F90A37
:10068E000034F51F572BF11B532B7108F90070081E
:10069E00F800F101F0013B2BF101F001F00A0034FA
:1006AE00F109F009FB0A382BF80A0319F90A740844
:1006BE007802031D3B2B75087902031D3B2BF901B4
:1006CE00F801F00A0319F10AF11F3B2B0000FF3469
:0206DE00080012
:1006E000831603139818762B0000702B83125D0875
:0406F0009900080065
:0E06F400831203134D088A004C088200080090
:10070200103083120313F4002730F5005508F0006F
:100712005608F10007230A30F4000030F5000723E1
:100722007808F0007908F10030307007DB00E8301B
:10073200F4000330F5005508F0005608F1000723D5
:100742000A30F4000030F50007237808F000790839
:10075200F10030307007DA006430F4000030F50048
:100762005508F0005608F10007230A30F400003063
:10077200F50007237808F0007908F100303070079F
:10078200D9000A30F4000030F5005508F000560890
:10079200F10007230A30F4000030F500072378083F
:1007A200F0007908F10030307007D8000A30F40008
:1007B2000030F5005508F0005608F10007237808CC
:1007C200F0007908F10030307007D7005408DD00DE
:1007D20070233A30DD0070235B08DD0070235A0875
:1007E200DD0070235908DD0070235808DD007023F6
:0E07F2005708DD0070233B30DD007023080047
:1008000083120313D801D901DA01DB013508003C5A
:10081000031D0C2C3408073C0318102CB401B5013F
:100820003408F000F00D70107008243EDC0054080D
:10083000A200A82183125C0884007008800071085F
:10084000840A8000D601D70180305706F00080303E
:100850007002031D2D2C083056020318552C560823
:10086000F0005708F100F00DF10D70102430F00782
:10087000700884000008F000840A0008F1008C224F
:100880005808F4005908F5005A08F6005B08F7000C
:1008900008217008D8007108D9007208DA007308BE
:1008A000DB00D60A0319D70A242CB40A0319B50AA7
:1008B0000030F4000030F5000030F6008230F70020
:1008C0005808F0005908F1005A08F2005B08F300DC
:0608D000D521AA22080058
:1008D6007A238A110A128000840ACC0A0319CD0AE7
:0808E600F003031D6B2C080058
:1008EE0083120313FB01FA01F9018030F800F10CB9
:1008FE00F00C031C8B2C7408F90775080318750F80
:10090E00FA070318FB0A0310F01F932C7408FA075A
:10091E0075080318750FFB07FB0CFA0CF90CF80C95
:10092E00031C7E2C7B08F3007A08F2007908F10094
:06093E007808F00008003B
:10094400F0308B006330831203138100C7308316A9
:10095400810007309C00813083129F008D30831604
:100964009F00DB308500FF3083128500FF30860056
:0C0974006730831699001815C521080093
:1009800083120313D801D901DA01DB013708003CD7
:10099000031DCC2C3608073C0318D02CB601B70138
:1009A0003608F000F00D701070083A3EDC00540874
:1009B000A200A82183125C088400700880007108DE
:1009C000840A8000D601D70180305706F0008030BD
:1009D0007002031DED2C083056020318152D560821
:1009E000F0005708F100F00DF10D70103A30F007EB
:1009F000700884000008F000840A0008F1008C22CE
:100A00005808F4005908F5005A08F6005B08F7008A
:100A100008217008D8007108D9007208DA0073083C
:100A2000DB00D60A0319D70AE42CB60A0319B70A61
:100A30000030F4000030F5000030F6008230F7009E
:100A40005808F0005908F1005A08F2005B08F3005A
:060A5000D521AA220800D6
:100A56008B1C332D8B1083120313B80A0319B90AA2
:020A6600080086
:100A68000B1D3F2D831203132314CA0A0319CB0A43
:080A7800633081000B1108003E
:100A80000030831203134B06031D482D64304A06C1
:100A9000031D4F2DCA01CB01A31420308506080089
:100AA000C42583120313D001D101D201D301A224A2
:100AB000231C942D2310D401D50100247008D200EA
:100AC0007108D3000130D4000030D500C024700874
:100AD000D0007108D1005630D4005208D500530818
:100AE000D60081234930D4005008D5005108D600E3
:100AF0008123A31C8E2DA3105230D4003808F0009F
:100B00003908F1003C30F4000030F500772470081B
:100B1000D5007108D6008123B801B9010D30DD0080
:0C0B200070230A30DD007023582D952D45
:100B880023308400293083120313F0009B30CC00FB
:080B98000530CD006B240800BC
:020B3600003489
:100B3800003400340034003400340034003400340D
:100B480000340034003400340034003400340034FD
:040B58000034003431
:040B5C00003400342D
:040B60000034003429
:100B640000340034003400340034003400340034E1
:100B740000340034003400340034003400340034D1
:040B84000034003405
:02400E004A2F37
:00000001FF
