:020000005B2D76
:10000800FF00030E8301EE000A08EF008A01700862
:10001800A1008B1C13288B10A80A0319A90A0B1D11
:100028001C282314AA0A0319AB0A633081000B1198
:1000380000302B06031D222864302A06031D2728BA
:10004800AA01AB01A3142108F0006F088A006E0E04
:080058008300FF0E7F0E09007A
:0E006000F201F101F001F801F3010030080097
:10006E007B15FB1F41280130F300F201F101F00175
:08007E00FA0DF20CFF3008003E
:08008600FA1FF213003008001C
:10008E00FB14FB1F5128FF30F300F200F100F000CB
:08009E00FA0DF20CFF3008001E
:0E00A6001D3083120313FD00FD0B57280800C8
:1000B400710DF80DF90D7408F8027508031C750F1D
:1000C400F902F00DF10D0F30FC00710DF80DF90D72
:1000D4007408701C7328F8027508031C750FF90264
:1000E4007828F80775080318750FF907F00DF10D56
:1000F400FC0B6728701884287408F807750803181F
:08010400750FF9070000080067
:10010C007B14FB1F9128F201FA1FFF30F200F10063
:0A011C00F000FA0DF20CFF300800AD
:06012600FB15FF3008008C
:10012C007C18CC28FC189D287C19EB289628A0015B
:10013C007208031DBD287108F2007008F1007808E0
:10014C00F000F801A0157208031DBD287108F2001B
:10015C007008F100F001A01120167208031DBD28D3
:10016C007108F200F101A01572080319DF282008AC
:10017C00F302031D031CE3280310F21BCC28F80D1B
:10018C00F00DF10DF20DF30BC328E3287B1B701C53
:10019C00E728F81FE728F00A0319F10A0319F20AF5
:1001AC00031DE728F20CF10CF00CF30A0319EB28F1
:1001BC00E7280130FC003020EE280230FC0037200C
:1001CC00EE280430FC004320EE280830FC004720C9
:0401DC000000080017
:1001E000A0017208031D05297108F2007008F100D2
:1001F000F001A0157208031D05297108F200F10134
:10020000A01120167208031913292008F302031DF8
:10021000031C17290310F21B1B29F00DF10DF20D21
:10022000F30B0B2917290130FC0030201E29023066
:0E023000FC0037201E290430FC00432008008B
:10023E008312031372087606A000F801F901730801
:10024E007702031C42297708FD007308F7007D082A
:10025E00F3007608FD007208F6007D08F2007508BE
:10026E00FD007108F5007D08F1007408FD007008AE
:10027E00F4007D08F00077080319BB297208FA0014
:10028E00F217F61777087302F7000319752908306D
:10029E007702031C6B29F7007408F9007508F40047
:1002AE007608F500F60108307702031C6B29F7007B
:1002BE007408F9007508F400F50108307702031C84
:1002CE006B297A08F200BB297708031975290310E8
:1002DE00F60CF50CF40CF90CF70B6E29A01F822905
:1002EE00F909F409F509F609F90A0319F40A0319CB
:1002FE00F50A0319F60A7908F80774080318740F3B
:10030E00F00775080318750FF10776080318760FB6
:10031E00F207A01B9B29031CAB29F20CF10CF00C6D
:10032E00F80CF30FAB29B7290318AF29F809F00918
:10033E00F109F209F80A0319F00A0319F10A03196F
:10034E00F20A8030FA06B3290130FC009620BD294E
:10035E000230FC009620BD290430FC00F020BD299F
:10036E000830FC004720BD290030FC0000000800CA
:10037E00C730831203139F052208F000F00D701092
:10038E00F00D7010F00D701070089F0453201F15A3
:10039E001F1DD3290000CF291E08F100F00183167E
:0A03AE001E08F0040030F1040800FE
:1003B80083160313981690308312980083168717B4
:1003C800071383128C1EEB291A08F000E529080090
:1003D800831203137408003A031D072A7508003AAC
:1003E800031D072A7608003A031D072A7708003AF2
:1003F800031D072AFF30F000FF30F1007F30F200C4
:10040800FF30F300A22A8312031377080319962AF0
:1004180073080319992A720876068039FA00F217C8
:10042800F617A0017208F8007108FC007008FD00BA
:100438007408FD027508031C750FFC027608031C7E
:10044800760FF802F801FC01FD01031C322A0310A3
:10045800F20CF10CF00CF80C0130A0007708F30254
:10046800031C3C2A7E302007F30703189C2A412AE4
:100478007E302007F307031C9F2A1830FA07FD0D6A
:10048800FC0DF80DF00DF10DF20DA00D7408F00241
:100498007508031C750FF1027608031C760FF2022B
:1004A800760DA004201C5A2A7D14652A7408F007CA
:1004B80075080318750FF10776080318760AF2070E
:1004C8007D10FA031F307A05031D432A7B1B7D1C10
:1004D8008C2A0310F00DF10DF20DA00D7408F00236
:1004E8007508031C750FF1027608031C760FF202DB
:1004F800760D20040139FD070318FC0A0319F80AD0
:10050800031D8C2AF80CFC0CFD0CF30A03199C2A19
:10051800FA1FF8137808F2007C08F1007D08F00053
:100528000030A12A01309320A12A02303020A12ACC
:0E05380004304720A12A0830372000000800B8
:10054600831203137008F8007108F000F101F2013C
:10055600F301FB01FC019630F300FA01F01FB92A02
:10056600F809F009F80A0319F00AFA177008F100F9
:0C0576007808F000F801F201F020080005
:1005820083120313FB0173080319FE2A7208FA008F
:10059200F2178E30F302F31F012BF309F30A08302E
:1005A2007302031CE42AF300F10D7208F100F20158
:1005B20008307302031CE42AF300F10DF101730801
:1005C200031D0310EC2A73080319EC2A0310F20C22
:1005D200F10CF30BE72A7B1B711CF62A031CF62A8B
:1005E200F10A0319F20AF21B0D2BFA1F102BF20962
:1005F200F109F10A0319F20A102BF201F101102B91
:100602007B14FB1F132BF201FA1F132BFF30F20096
:10061200F100FA0DF20C132B0130FC00152B003007
:10062200FC00152BFF30FC00FC080319192B862057
:0A0632007108F0007208F1000800E2
:10063C00831203137408003A031D2D2B7508003A1E
:10064C00031D2D2BFF30F0007F30F100862B831221
:10065C000313FD01F901F80171087004031900344A
:10066C0071087506FA00FA1BFD09FB01F51F432BF7
:10067C00F409F509F40A0319F50AF11F4A2BF009DC
:10068C00F109F00A0319F10A71087504FA00FA1B52
:10069C005F2B5A207B18722BFD1F0034F009F109D7
:1006AC00F00A0319F10AF809F909F80A0319F90A09
:1006BC000034F51F6E2BF11B6A2B7108F9007008C2
:1006CC00F800F101F001522BF101F001F00A0034B5
:1006DC00F109F009FB0A4F2BF80A0319F90A7408FF
:1006EC007802031D522B75087902031D522BF90158
:1006FC00F801F00A0319F10AF11F522B0000FF3424
:02070C000800E3
:10070E008316031398188D2B0000872B2D08831248
:04071E009900080036
:0E072200831203134D088A004C088200080061
:10073000103083120313F4002730F50083162508C8
:10074000F0002608F1001E230A30F4000030F50006
:100750001E237808F0007908F10030307007831606
:10076000AB00E830F4000330F5002508F00026085F
:10077000F1001E230A30F4000030F5001E23780833
:10078000F0007908F100303070078316AA00643059
:10079000F4000030F5002508F0002608F1001E23C3
:1007A0000A30F4000030F5001E237808F0007908C4
:1007B000F100303070078316A9000A30F4000030D1
:1007C000F5002508F0002608F1001E230A30F40089
:1007D0000030F5001E237808F0007908F100303071
:1007E00070078316A8000A30F4000030F5002508D1
:1007F000F0002608F1001E237808F0007908F100C7
:10080000303070078316A7002408AD0087233A30E4
:100810008316AD00872383162B08AD00872383162C
:100820002A08AD00872383162908AD008723831685
:100830002808AD00872383162708AD0087233B30A7
:080840008316AD0087230800B8
:1008480083160313A801A901AA01AB018312250885
:10085800003C031D312C24080F3C0318352CA4013F
:10086800A5012408F000F00D701070082C3E8316C6
:10087800AC0024088312A200BF212C088400700851
:1008880080007108840A8000A601A701803027062D
:10089800F00080307002031D532C1030260203181C
:1008A8007D2C2608F0002708F100F00DF10D7010DE
:1008B8002C30F007700884000008F000840A000853
:1008C800F100A32283162808F4002908F5002A0855
:1008D800F6002B08F7001F2170088316A80071087E
:1008E800A9007208AA007308AB00A60A0319A70A90
:1008F8004A2C8312A40A0319A50A0030F400003018
:10090800F5000030F6008330F70083162808F00061
:100918002908F1002A08F2002B08F300EC21C12273
:020928000800C5
:10092A0083120313FB01FA01F9018030F800F10C7C
:10093A00F00C031CA92C7408F90775080318750F25
:10094A00FA070318FB0A0310F01FB12C7408FA0700
:10095A0075080318750FFB07FB0CFA0CF90CF80C59
:10096A00031C9C2C7B08F3007A08F2007908F1003A
:06097A007808F0000800FF
:1009800091238A110A128000840ACC0A0319CD0A25
:08099000F003031DC02C080058
:10099800F0308B006330831203138100C730831655
:1009A800810007309C00813083129F008D308316B0
:1009B8009F00DB308500FF3083128500FF30860002
:0C09C8006730831699001815DC21080028
:1009D40083160313A801A901AA01AB0183122708F6
:1009E400003C031DF72C26080F3C0318FB2CA60122
:1009F400A7012608F000F00D701070084E3E831613
:100A0400AC0024088312A200BF212C0884007008C3
:100A140080007108840A8000A601A701803027069F
:100A2400F00080307002031D192D103026020318C7
:100A3400432D2608F0002708F100F00DF10D701089
:100A44004E30F007700884000008F000840A0008A3
:100A5400F100A32283162808F4002908F5002A08C7
:100A6400F6002B08F7001F2170088316A8007108F0
:100A7400A9007208AA007308AB00A60A0319A70A02
:100A8400102D8312A60A0319A70A0030F4000030BF
:100A9400F5000030F6008330F70083162808F000D4
:100AA4002908F1002A08F2002B08F300EC21C122E6
:020AB400080038
:100AB60083120313A301A401A501A601A701A8019E
:100AC600A901AA01AB018316A001A101A201A301FC
:100AD600CC24231CB12D23108316A401A5012424A4
:100AE60070088316A2007108A3000130A40000302C
:100AF600A500EA2470088316A0007108A1005630EC
:100B0600A4002208A5002308A600982349308316CE
:100B1600A4002008A5002108A6009823A31CA92D3F
:100B2600A31052308316A40083122808F000290867
:100B3600F1003C30F4000030F5009524700883166F
:100B4600A5007108A6009823A801A9010D308316F7
:100B5600AD0087230A308316AD0087236C2DB22D96
:02400E004A2F37
:00000001FF
