:02000000362D9B
:10000800FF00030E8301D3000A08D4008A01700898
:10001800A4007108A3007208A2007308A1008B1C39
:100028002D288B103708F0003808F1003908F20045
:100038003A08F300F00A0319F10A0319F20A03193E
:10004800F30A7008B7007108B8007208B90073089D
:10005800BA000B1D3328BD0A633081000B113D081F
:100068000A3A031D3A283614D00ABD0150080A3A44
:10007800031D4028D001B6142408F0002308F1001D
:100088002208F2002108F30054088A00530E830066
:06009800FF0E7F0E0900BF
:0E009E00F201F101F001F801F3010030080059
:1000AC007B15FB1F60280130F300F201F101F00118
:0800BC00FA0DF20CFF30080000
:0800C400FA1FF21300300800DE
:1000CC00FB14FB1F7028FF30F300F200F100F0006E
:0800DC00FA0DF20CFF300800E0
:1000E400A0017208031D87287108F2007008F1004E
:1000F400F001A0157208031D87287108F200F101B0
:10010400A01120167208031995282008F302031D74
:10011400031C99280310F21B9D28F00DF10DF20D1C
:10012400F30B8D2899280130FC004F20A0280230C1
:0E013400FC005620A0280430FC0062200800C9
:100142007B14FB1FAC28F201FA1FFF30F200F10012
:0A015200F000FA0DF20CFF30080077
:06015C00FB15FF30080056
:100162007C18E728FC18B8287C190629B128A001B8
:100172007208031DD8287108F2007008F10078088F
:10018200F000F801A0157208031DD8287108F200CA
:100192007008F100F001A01120167208031DD82882
:1001A2007108F200F101A01572080319FA2820085B
:1001B200F302031D031CFE280310F21BE728F80DAF
:1001C200F00DF10DF20DF30BDE28FE287B1B701CE7
:1001D2000229F81F0229F00A0319F10A0319F20A87
:1001E200031D0229F20CF10CF00CF30A0319062983
:1001F20002290130FC004F2009290230FC00562060
:1002020009290430FC00622009290830FC0066201C
:0402120000000800E0
:0E0216001D3083120313FD00FD0B0F2908009D
:10022400710DF80DF90D7408F8027508031C750FAB
:10023400F902F00DF10D0F30FC00710DF80DF90D00
:100244007408701C2B29F8027508031C750FF90239
:100254003029F80775080318750FF907F00DF10D2B
:10026400FC0B1F2970183C297408F807750803183B
:08027400750FF90700000800F6
:10027C008312031372087606A000F801F9017308C3
:10028C007702031C61297708FD007308F7007D08CD
:10029C00F3007608FD007208F6007D08F200750880
:1002AC00FD007108F5007D08F1007408FD00700870
:1002BC00F4007D08F00077080319DA297208FA00B7
:1002CC00F217F61777087302F70003199429083010
:1002DC007702031C8A29F7007408F9007508F400EA
:1002EC007608F500F60108307702031C8A29F7001E
:1002FC007408F9007508F400F50108307702031C46
:10030C008A297A08F200DA2977080319942903104C
:10031C00F60CF50CF40CF90CF70B8D29A01FA12988
:10032C00F909F409F509F609F90A0319F40A03198C
:10033C00F50A0319F60A7908F80774080318740FFC
:10034C00F00775080318750FF10776080318760F78
:10035C00F207A01BBA29031CCA29F20CF10CF00CF1
:10036C00F80CF30FCA29D6290318CE29F809F0097D
:10037C00F109F209F80A0319F00A0319F10A031931
:10038C00F20A8030FA06D2290130FC00B120DC29B7
:10039C000230FC00B120DC290430FC007220DC2986
:1003AC000830FC006620DC290030FC00000008004E
:1003BC00C730831203139F052508F000F00D701051
:1003CC00F00D7010F00D701070089F040B211F15AC
:1003DC001F1DF2290000EE291E08F100F001831602
:0A03EC001E08F0040030F1040800C0
:1003F600831203137008F8007108F000F101F2018E
:10040600F301FB01FC019630F300FA01F01F112AFB
:10041600F809F009F80A0319F00AFA177008F1004A
:0C0426007808F000F801F20172200800D4
:100432008316031398181F2A0000192A83126208D0
:040442009900080015
:100446008316031398169030831298008316871725
:10045600071383128C1E322A1A08F0002C2A080071
:1004660083120313FB0173080319702A7208FA003A
:10047600F2178E30F302F31F732AF309F30A0830DA
:100486007302031C562AF300F10D7208F100F20103
:1004960008307302031C562AF300F10DF1017308AC
:1004A600031D03105E2A730803195E2A0310F20C5B
:1004B600F10CF30B592A7B1B711C682A031C682A52
:1004C600F10A0319F20AF21B7F2AFA1F822AF2099D
:1004D600F109F10A0319F20A822AF201F101822ACC
:1004E6007B14FB1F852AF201FA1F852AFF30F200D2
:1004F600F100FA0DF20C852A0130FC00872A003043
:10050600FC00872AFF30FC00FC0803198B2AA12077
:0A0516007108F0007208F1000800FF
:10052000831203137408003A031DAB2A7508003ABE
:10053000031DAB2A7608003A031DAB2A7708003A60
:10054000031DAB2AFF30F000FF30F1007F30F200D6
:10055000FF30F300462B83120313770803193A2B5D
:10056000730803193D2B720876068039FA00F217DA
:10057000F617A0017208F8007108FC007008FD0071
:100580007408FD027508031C750FFC027608031C35
:10059000760FF802F801FC01FD01031CD62A0310B6
:1005A000F20CF10CF00CF80C0130A0007708F3020B
:1005B000031CE02A7E302007F3070318402BE52AAE
:1005C0007E302007F307031C432B1830FA07FD0D7C
:1005D000FC0DF80DF00DF10DF20DA00D7408F002F8
:1005E0007508031C750FF1027608031C760FF202E2
:1005F000760DA004201CFE2A7D14092B7408F00738
:1006000075080318750FF10776080318760AF207C4
:100610007D10FA031F307A05031DE72A7B1B7D1C22
:10062000302B0310F00DF10DF20DA00D7408F00247
:100630007508031C750FF1027608031C760FF20291
:10064000760D20040139FD070318FC0A0319F80A86
:10065000031D302BF80CFC0CFD0CF30A0319402B86
:10066000FA1FF8137808F2007C08F1007D08F0000A
:100670000030452B0130AE20452B02304F20452B5A
:0E06800004306620452B08305620000008008C
:0E068E008312031352088A00510882000800EC
:10069C00831203137408003A031D5D2B7508003A8E
:1006AC00031D5D2BFF30F0007F30F100B62B831261
:1006BC000313FD01F901F8017108700403190034EA
:1006CC0071087506FA00FA1BFD09FB01F51F732B67
:1006DC00F409F509F40A0319F50AF11F7A2BF0094C
:1006EC00F109F00A0319F10A71087504FA00FA1BF2
:1006FC008F2B12217B18A22BFD1F0034F009F1095E
:10070C00F00A0319F10AF809F909F80A0319F90AA8
:10071C000034F51F9E2BF11B9A2B7108F900700801
:10072C00F800F101F001822BF101F001F00A003424
:10073C00F109F009FB0A7F2BF80A0319F90A74086E
:10074C007802031D822B75087902031D822BF90197
:10075C00F801F00A0319F10AF11F822B0000FF3493
:02076C00080083
:10076E00103083120313F4002730F5005A08F000FE
:10077E005B08F1004E230A30F4000030F5004E23E2
:10078E007808F0007908F10030307007E000E830AA
:10079E00F4000330F5005A08F0005B08F1004E2318
:1007AE000A30F4000030F5004E237808F000790886
:1007BE00F10030307007DF006430F4000030F500D7
:1007CE005A08F0005B08F1004E230A30F4000030A6
:1007DE00F5004E237808F0007908F10030307007EC
:1007EE00DE000A30F4000030F5005A08F0005B0815
:1007FE00F1004E230A30F4000030F5004E23780845
:10080E00F0007908F10030307007DD000A30F40096
:10081E000030F5005A08F0005B08F1004E2378080E
:10082E00F0007908F10030307007DC005908E20062
:10083E0019223A30E20019226008E20019225F08FC
:10084E00E20019225E08E20019225D08E200192278
:0E085E005C08E20019223B30E200192208007B
:10086C0083120313DD01DE01DF01E0013F08003CD0
:10087C00031D422C3E08073C0318462CBE01BF0149
:10088C003E08F000F00D70107008403EE100590871
:10089C00A500DE21831261088400700880007108B5
:1008AC00840A8000DB01DC0180305C06F0008030C3
:1008BC007002031D632C08305B0203188B2C5B0841
:1008CC00F0005C08F100F00DF10D70104030F007F5
:1008DC00700884000008F000840A0008F100FB2175
:1008EC005D08F4005E08F5005F08F6006008F7008C
:1008FC003E217008DD007108DE007208DF0073080D
:10090C00E000DB0A0319DC0A5A2CBE0A0319BF0AE1
:10091C000030F4000030F5000030F6008230F700B3
:10092C005D08F0005E08F1005F08F2006008F3005B
:06093C00902233220800A6
:10094200F0308B006330831203138100C7308316AB
:10095200810007309C00813083129F008D30831606
:100962009F00DB308500FF3083128500FF30860058
:0C09720067308316990018152322080036
:10097E0083120313DD01DE01DF01E0013C08003CC0
:10098E00031DCB2C3B08073C0318CF2CBB01BC012D
:10099E003B08F000F00D70107008263EE10059087B
:1009AE00A500DE21831261088400700880007108A2
:1009BE00840A8000DB01DC0180305C06F0008030B0
:1009CE007002031DEC2C08305B020318142D5B081B
:1009DE00F0005C08F100F00DF10D70102630F007FC
:1009EE00700884000008F000840A0008F100FB2162
:1009FE005D08F4005E08F5005F08F6006008F70079
:100A0E003E217008DD007108DE007208DF007308F9
:100A1E00E000DB0A0319DC0AE32CBB0A0319BC0A4B
:100A2E000030F4000030F5000030F6008230F700A0
:100A3E005D08F0005E08F1005F08F2006008F30048
:060A4E0090223322080093
:100A540047238A110A128000840AD10A0319D20A90
:080A6400F003031D2A2D080018
:100A6C00A62583120313D501D601D701D801A124E1
:100A7C00361C732D3610D901DA0136247008D700D4
:100A8C007108D8000130D9000030DA00BF2470089A
:100A9C00D5007108D6005630D9005708DA0058082E
:100AAC00DB00B7234930D9005508DA005608DB00C3
:100ABC00B723B61C6D2DB6105230D9003708DA00AA
:100ACC003808DB00B723B701B801B901BA010D3002
:0E0ADC00E20019220A30E20019223E2D742D8C
:100B4C00263084002B3083120313F0007A30D1004E
:080B5C000530D2002A25080033
:100AF4000034003400340034003400340034003452
:100B04000034003400340034003400340034003441
:020B14000034AB
:080B1600003400340034003407
:040B1E00003400346B
:020B220000349D
:040B24000034003465
:100B2800003400340034003400340034003400341D
:100B3800003400340034003400340034003400340D
:020B4800003477
:02400E004A2F37
:00000001FF
