:02000000442C8E
:10000800FF00030E8301CB000A08CC008A017008A8
:10001800A1000B1D2228B20A0319B30A00303306C7
:10002800031D182805303206031D1F2804308506D5
:10003800B201B3013414633081000B112108F000C0
:0E0048004C088A004B0E8300FF0E7F0E09004D
:0E005600F201F101F001F801F30100300800A1
:100064007B15FB1F3C280130F300F201F101F00184
:08007400FA0DF20CFF30080048
:08007C00FA1FF2130030080026
:10008400FB14FB1F4C28FF30F300F200F100F000DA
:08009400FA0DF20CFF30080028
:10009C00710DF80DF90D7408F8027508031C750F35
:1000AC00F902F00DF10D0F30FC00710DF80DF90D8A
:1000BC007408701C6728F8027508031C750FF90288
:1000CC006C28F80775080318750FF907F00DF10D7A
:1000DC00FC0B5B28701878287408F807750803184F
:0800EC00750FF9070000080080
:0600F400FB15FF300800BF
:1000FA007C18B328FC1884287C19D2287D28A001F2
:10010A007208031DA4287108F2007008F10078082B
:10011A00F000F801A0157208031DA4287108F20066
:10012A007008F100F001A01120167208031DA4281E
:10013A007108F200F101A01572080319C6282008F7
:10014A00F302031D031CCA280310F21BB328F80D7F
:10015A00F00DF10DF20DF30BAA28CA287B1B701CB7
:10016A00CE28F81FCE28F00A0319F10A0319F20A59
:10017A00031DCE28F20CF10CF00CF30A0319D22855
:10018A00CE280130FC002B20D5280230FC0032207A
:10019A00D5280430FC003E20D5280830FC00422037
:0401AA000000080049
:1001AE00A0017208031DEC287108F2007008F1001E
:1001BE00F001A0157208031DEC287108F200F10180
:1001CE00A011201672080319FA282008F302031D45
:1001DE00031CFE280310F21B0229F00DF10DF20D87
:1001EE00F30BF228FE280130FC002B2005290230EB
:0E01FE00FC00322005290430FC003E200800E1
:10020C008316031398169030831298008316871761
:10021C00071383128C1E15291A08F0000F290800E9
:10022C00831203137008F8007108F000F101F20159
:10023C00F301FB01FC019630F300FA01F01F2C29AD
:10024C00F809F009F80A0319F00AFA177008F10016
:0C025C007808F000F801F201D72008003B
:100268008316031398183A29000034298312550875
:0402780099000800E1
:0E027C00831203134A088A0049088200080012
:10028A008312031372087606A000F801F9017308B5
:10029A007702031C68297708FD007308F7007D08B8
:1002AA00F3007608FD007208F6007D08F200750872
:1002BA00FD007108F5007D08F1007408FD00700862
:1002CA00F4007D08F00077080319E1297208FA00A2
:1002DA00F217F61777087302F70003199B290830FB
:1002EA007702031C9129F7007408F9007508F400D5
:1002FA007608F500F60108307702031C9129F70009
:10030A007408F9007508F400F50108307702031C37
:10031A0091297A08F200E129770803199B29031029
:10032A00F60CF50CF40CF90CF70B9429A01FA8296C
:10033A00F909F409F509F609F90A0319F40A03197E
:10034A00F50A0319F60A7908F80774080318740FEE
:10035A00F00775080318750FF10776080318760F6A
:10036A00F207A01BC129031CD129F20CF10CF00CD5
:10037A00F80CF30FD129DD290318D529F809F0095A
:10038A00F109F209F80A0319F00A0319F10A031923
:10039A00F20A8030FA06D9290130FC007D20E329CF
:1003AA000230FC007D20E3290430FC00D720E32939
:1003BA000830FC004220E3290030FC00000008005D
:1003CA00831203137408003A031D002A7508003AC1
:1003DA00031D002A7608003A031D002A7708003A0E
:1003EA00031D002AFF30F000FF30F1007F30F200D9
:1003FA00FF30F3009B2A83120313770803198F2A0D
:10040A0073080319922A720876068039FA00F217DD
:10041A00F617A0017208F8007108FC007008FD00C8
:10042A007408FD027508031C750FFC027608031C8C
:10043A00760FF802F801FC01FD01031C2B2A0310B8
:10044A00F20CF10CF00CF80C0130A0007708F30262
:10045A00031C352A7E302007F3070318952A3A2A07
:10046A007E302007F307031C982A1830FA07FD0D7F
:10047A00FC0DF80DF00DF10DF20DA00D7408F0024F
:10048A007508031C750FF1027608031C760FF20239
:10049A00760DA004201C532A7D145E2A7408F007E6
:1004AA0075080318750FF10776080318760AF2071C
:1004BA007D10FA031F307A05031D3C2A7B1B7D1C25
:1004CA00852A0310F00DF10DF20DA00D7408F0024B
:1004DA007508031C750FF1027608031C760FF202E9
:1004EA00760D20040139FD070318FC0A0319F80ADE
:1004FA00031D852AF80CFC0CFD0CF30A0319952A36
:10050A00FA1FF8137808F2007C08F1007D08F00061
:10051A0000309A2A01307A209A2A02302B209A2A0D
:0E052A00043042209A2A0830322000000800D7
:10053800831203137408003A031DAB2A7508003AA6
:10054800031DAB2AFF30F0007F30F100042B83122B
:100558000313FD01F901F80171087004031900344F
:1005680071087506FA00FA1BFD09FB01F51FC12A7F
:10057800F409F509F40A0319F50AF11FC82AF00964
:10058800F109F00A0319F10A71087504FA00FA1B57
:10059800DD2A4E207B18F02AFD1F0034F009F109EE
:1005A800F00A0319F10AF809F909F80A0319F90A0E
:1005B8000034F51FEC2AF11BE82A7108F9007008CD
:1005C800F800F101F001D02AF101F001F00A00343D
:1005D800F109F009FB0ACD2AF80A0319F90A740887
:1005E8007802031DD02A75087902031DD02AF90163
:1005F800F801F00A0319F10AF11FD02A0000FF34AC
:020608000800E8
:10060A00E83083120313F4000330F5004E08F000BB
:10061A004F08F1009C220A30F4000030F5009C22B9
:10062A007808F0007908F10030307007D3006430A0
:10063A00F4000030F5004E08F0004F08F1009C224B
:10064A000A30F4000030F5009C227808F00079089E
:10065A00F10030307007D2000A30F4000030F500A3
:10066A004E08F0004F08F1009C220A30F4000030D6
:10067A00F5009C227808F0007908F1003030700704
:10068A00D1000A30F4000030F5004E08F0004F089F
:10069A00F1009C227808F0007908F10030307007E8
:1006AA00D0004D08D50034213A30D5003421530802
:1006BA00D50034215208D50034215108D5003421FF
:0E06CA005008D50034213B30D5003421080003
:1006D80083120313D101D201D301D4013808003C9D
:1006E800031D782B3708073C03187C2BB701B8018A
:1006F800CF01D00180305006F00080307002031D19
:10070800872B08304F020318AF2B4F08F000500812
:10071800F100F00DF10D70103930F0077008840009
:100728000008F000840A0008F10016215108F400BE
:100738005208F5005308F6005408F70045217008E0
:10074800D1007108D2007208D3007308D400CF0A10
:100758000319D00A7E2BB70A0319B80A0030F4002F
:100768000030F5000030F6008230F7005108F00044
:100778005208F1005308F2005408F300E52108007C
:10078800E0308B00633083120313810087308316B7
:10079800810007309C00013083129F008E30831641
:1007A8009F00FB308500FF30831285006730831679
:0807B800990018150621080044
:1007C00083120313D101D201D301D4013608003CB6
:1007D000031DEC2B3508073C0318F02BB501B601BF
:1007E000CF01D00180305006F00080307002031D30
:1007F000FB2B08304F020318232C4F08F000500841
:10080000F100F00DF10D70102230F0077008840037
:100810000008F000840A0008F10016215108F400D5
:100820005208F5005308F6005408F70045217008F7
:10083000D1007108D2007208D3007308D400CF0A27
:100840000319D00AF22BB50A0319B60A0030F400D6
:100850000030F5000030F6008230F7005108F0005B
:100860005208F1005308F2005408F300E521080093
:100870003E218A110A128000840AC90A0319CA0A91
:08088000F003031D382C0800F1
:100888009224C423341C642C3410CD01CE016C2373
:100898000130CD000030CE00E0235630CD00FF30CF
:1008A800CE000330CF0005234930CD00FF30CE0005
:1008B800CF0105230D30D50034210A30D50034216D
:0408C800462C652C29
:1009240022308400273083120313F0006B30C90097
:080934000430CA003824080059
:1008D6000034003400340034003400340034003472
:1008E6000034003400340034003400340034003462
:0408F6000034003496
:0208FA000034C8
:0408FC000034003490
:04090000003400348B
:100904000034003400340034003400340034003443
:100914000034003400340034003400340034003433
:02400E004A2F37
:00000001FF
