:02000000E92CE9
:10000800FF00030E8301CB000A08CC008A010B1DF8
:10001800152820308506B201B301341463308100FD
:100028000B114C088A004B0E8300FF0E7F0E09004F
:0E003800F201F101F001F801F30100300800BF
:100046007B15FB1F2D280130F300F201F101F001B1
:08005600FA0DF20CFF30080066
:08005E00FA1FF2130030080044
:10006600FB14FB1F3D28FF30F300F200F100F00007
:08007600FA0DF20CFF30080046
:10007E00710DF80DF90D7408F8027508031C750F53
:10008E00F902F00DF10D0F30FC00710DF80DF90DA8
:10009E007408701C5828F8027508031C750FF902B5
:1000AE005D28F80775080318750FF907F00DF10DA7
:1000BE00FC0B4C28701869287408F807750803188B
:0800CE00750FF907000008009E
:1000D600A0017208031D80287108F2007008F10063
:1000E600F001A0157208031D80287108F200F101C5
:1000F600A0112016720803198E282008F302031D8A
:10010600031C92280310F21B9628F00DF10DF20D38
:10011600F30B862892280130FC001C209928023017
:0E012600FC00232099280430FC002F20080044
:100134007C18D028FC18A1287C19EF289A28A00143
:100144007208031DC1287108F2007008F1007808D4
:10015400F000F801A0157208031DC1287108F2000F
:100164007008F100F001A01120167208031DC128C7
:100174007108F200F101A01572080319E3282008A0
:10018400F302031D031CE7280310F21BD028F80D0B
:10019400F00DF10DF20DF30BC728E7287B1B701C43
:1001A400EB28F81FEB28F00A0319F10A0319F20AE5
:1001B400031DEB28F20CF10CF00CF30A0319EF28E1
:1001C400EB280130FC001C20F2280230FC00232024
:1001D400F2280430FC002F20F2280830FC003320E1
:0401E400000008000F
:0601E800FB15FF300800CA
:0E01EE001D3083120313FD00FD0BFB280800DB
:1001FC0083160313981804290000FE2883125A084A
:04020C00990008004D
:0E021000831203134A088A004908820008007E
:10021E00831603139816903083129800831687174F
:10022E00071383128C1E1E291A08F00018290800C5
:10023E00C730831203139F052108F000F00D7010D4
:10024E00F00D7010F00D701070089F04F7201F1540
:10025E001F1D332900002F291E08F100F0018316FF
:0A026E001E08F0040030F10408003F
:10027800831203137008F8007108F000F101F2010D
:10028800F301FB01FC019630F300FA01F01F52293B
:10029800F809F009F80A0319F00AFA177008F100CA
:0C02A8007808F000F801F2016B2008005B
:1002B400831203137408003A031D75297508003A64
:1002C400031D75297608003A031D75297708003A3D
:1002D400031D7529FF30F000FF30F1007F30F2007C
:1002E400FF30F300102A8312031377080319042A3A
:1002F40073080319072A720876068039FA00F21780
:10030400F617A0017208F8007108FC007008FD00DF
:100314007408FD027508031C750FFC027608031CA3
:10032400760FF802F801FC01FD01031CA02903105B
:10033400F20CF10CF00CF80C0130A0007708F30279
:10034400031CAA297E302007F30703180A2AAF29C1
:100354007E302007F307031C0D2A1830FA07FD0D21
:10036400FC0DF80DF00DF10DF20DA00D7408F00266
:100374007508031C750FF1027608031C760FF20250
:10038400760DA004201CC8297D14D3297408F00715
:1003940075080318750FF10776080318760AF20733
:1003A4007D10FA031F307A05031DB1297B1B7D1CC8
:1003B400FA290310F00DF10DF20DA00D7408F002EE
:1003C4007508031C750FF1027608031C760FF20200
:1003D400760D20040139FD070318FC0A0319F80AF5
:1003E400031DFA29F80CFC0CFD0CF30A03190A2A64
:1003F400FA1FF8137808F2007C08F1007D08F00079
:1004040000300F2A0130F4200F2A02301C200F2A5A
:0E041400043033200F2A083023200000080097
:10042200831203137408003A031D202A7508003A48
:10043200031D202AFF30F0007F30F100792A831259
:100442000313FD01F901F801710870040319003466
:1004520071087506FA00FA1BFD09FB01F51F362A21
:10046200F409F509F40A0319F50AF11F3D2AF00906
:10047200F109F00A0319F10A71087504FA00FA1B6E
:10048200522A3F207B18652AFD1F0034F009F1092A
:10049200F00A0319F10AF809F909F80A0319F90A25
:1004A2000034F51F612AF11B5D2A7108F9007008FA
:1004B200F800F101F001452AF101F001F00A0034DF
:1004C200F109F009FB0A422AF80A0319F90A740829
:1004D2007802031D452A75087902031D452AF90190
:1004E200F801F00A0319F10AF11F452A0000FF344E
:0204F200080000
:1004F4008312031372087606A000F801F901730849
:100504007702031C9D2A7708FD007308F7007D0815
:10051400F3007608FD007208F6007D08F200750805
:10052400FD007108F5007D08F1007408FD007008F5
:10053400F4007D08F00077080319162B7208FA00FE
:10054400F217F61777087302F7000319D02A083058
:100554007702031CC62AF7007408F9007508F40032
:100564007608F500F60108307702031CC62AF70066
:100574007408F9007508F400F50108307702031CCB
:10058400C62A7A08F200162B77080319D02A03101A
:10059400F60CF50CF40CF90CF70BC92AA01FDD2A94
:1005A400F909F409F509F609F90A0319F40A031912
:1005B400F50A0319F60A7908F80774080318740F82
:1005C400F00775080318750FF10776080318760FFE
:1005D400F207A01BF62A031C062BF20CF10CF00CFC
:1005E400F80CF30F062B122B03180A2BF809F00949
:1005F400F109F209F80A0319F00A0319F10A0319B7
:10060400F20A8030FA060E2B0130FC009A20182BD7
:100614000230FC009A20182B0430FC006B20182BAD
:100624000830FC003320182B0030FC0000000800C8
:100634007B14FB1F252BF201FA1FFF30F200F1009F
:0A064400F000FA0DF20CFF30080080
:10064E00E83083120313F4000330F5005208F00073
:10065E005308F10011220A30F4000030F500112287
:10066E007808F0007908F10030307007D700643058
:10067E00F4000030F5005208F0005308F10011228A
:10068E000A30F4000030F50011227808F0007908E5
:10069E00F10030307007D6000A30F4000030F5005B
:1006AE005208F0005308F10011220A30F400003015
:1006BE00F50011227808F0007908F100303070074B
:1006CE00D5000A30F4000030F5005208F00053084F
:1006DE00F10011227808F0007908F100303070072F
:1006EE00D4005108DA00FE203A30DA00FE20570816
:1006FE00DA00FE205608DA00FE205508DA00FE2049
:0E070E005408DA00FE203B30DA00FE2008001E
:10071C0083120313FB01FC01FA0173080319CD2B9F
:10072C00F2178E30F302F31B9E2B03199E2BD02B4A
:10073C00F309F30A08307302031CB32BF300F10D19
:10074C007208F100F20108307302031CB32BF10D97
:10075C00F1017308031D0310BB2B73080319BB2B8A
:10076C000310F20CF10CF30BB62B7B1B711CC52B7D
:10077C00031CC52BF10A0319F20AF21BDC2BFA1F1E
:10078C00DF2BF209F109F10A0319F20ADF2BF2014E
:10079C00F101DF2B7B14FB1FE22BF201FA1FE22B82
:1007AC00FF30F200F100FA0DF20CE22B0130FC00EC
:1007BC00E42B0030FC00E42BFF30FC00FC08031998
:0E07CC00E82B1A237108F0007208F1000800F3
:1007DA0083120313D501D601D701D8013808003C8A
:1007EA00031DF92B3708073C0318FD2BB701B80185
:1007FA003708F000F00D70107008393ED900510822
:10080A00A1001F2183125908840070088000710812
:10081A00840A8000D301D40180305406F00080306D
:10082A007002031D1A2C083053020318422C530875
:10083A00F0005408F100F00DF10D70103930F00796
:10084A00700884000008F000840A0008F1003C21C6
:10085A005508F4005608F5005708F6005808F7003E
:10086A007A227008D5007108D6007208D70073087A
:10087A00D800D30A0319D40A112CB70A0319B80AE3
:10088A000030F4000030F5000030F6008230F70046
:10089A005508F0005608F1005708F2005808F3000E
:0408AA005A210800C7
:1008AE00E0308B0063308312031381008730831690
:1008BE00810007309C00813083129F008D3083169B
:1008CE009F00DB308500FF30831285006730831672
:0808DE00990018150F21080014
:1008E60008218A110A128000840AC90A0319CA0A51
:0808F600F003031D732C080040
:1008FE0083120313D501D601D701D8013608003C67
:10090E00031D8B2C3508073C03188F2CB501B6013F
:10091E003508F000F00D70107008223ED900510815
:10092E00A1001F21831259088400700880007108ED
:10093E00840A8000D301D40180305406F000803048
:10094E007002031DAC2C083053020318D42C53082C
:10095E00F0005408F100F00DF10D70102230F00788
:10096E00700884000008F000840A0008F1003C21A1
:10097E005508F4005608F5005708F6005808F70019
:10098E007A227008D5007108D6007208D700730855
:10099E00D800D30A0319D40AA32CB50A0319B60A30
:1009AE000030F4000030F5000030F6008230F70021
:1009BE005508F0005608F1005708F2005808F300E9
:0409CE005A210800A2
:1009D200482583120313CD01CE01CF01D001572444
:1009E200341C1A2D3410D101D201ED238E2370084C
:1009F200CF007108D0000130D1000030D2007F2436
:100A02008E237008CD007108CE005630D1004F08F9
:100A1200D2005008D30027234930D1004D08D2001C
:100A22004E08D30027230D30DA00FE200A30DA0008
:060A3200FE20F12C1B2D3B
:100A900022308400273083120313F0002130C90074
:080AA0000530CA0073240800B0
:100A42000034003400340034003400340034003404
:100A520000340034003400340034003400340034F4
:040A62000034003428
:020A660000345A
:040A68000034003422
:040A6C00003400341E
:100A700000340034003400340034003400340034D6
:100A800000340034003400340034003400340034C6
:02400E004A2F37
:00000001FF
