:02000000192DB8
:10000800FF00030E8301CE000A08CF008A017008A2
:10001800A1008B1C13288B10B80A0319B90A0B1DF1
:100028001C282314CA0A0319CB0A633081000B1158
:100038004B08173A031D222870304A06031D292849
:1000480020308506CA01CB01A3142108F0004F080F
:0C0058008A004E0E8300FF0E7F0E090090
:0E006400F201F101F001F801F3010030080093
:100072007B15FB1F43280130F300F201F101F0016F
:08008200FA0DF20CFF3008003A
:08008A00FA1FF2130030080018
:10009200FB14FB1F5328FF30F300F200F100F000C5
:0800A200FA0DF20CFF3008001A
:1000AA00A0017208031D6A287108F2007008F100A5
:1000BA00F001A0157208031D6A287108F200F10107
:1000CA00A01120167208031978282008F302031DCC
:1000DA00031C7C280310F21B8028F00DF10DF20D91
:1000EA00F30B70287C280130FC0032208328023070
:0E00FA00FC00392083280430FC00452008005B
:100108007B14FB1F8F28F201FA1FFF30F200F10069
:0A011800F000FA0DF20CFF300800B1
:06012200FB15FF30080090
:100128007C18CA28FC189B287C19E9289428A00167
:100138007208031DBB287108F2007008F1007808E6
:10014800F000F801A0157208031DBB287108F20021
:100158007008F100F001A01120167208031DBB28D9
:100168007108F200F101A01572080319DD282008B2
:10017800F302031D031CE1280310F21BCA28F80D23
:10018800F00DF10DF20DF30BC128E1287B1B701C5B
:10019800E528F81FE528F00A0319F10A0319F20AFD
:1001A800031DE528F20CF10CF00CF30A0319E928F9
:1001B800E5280130FC003220EC280230FC00392010
:1001C800EC280430FC004520EC280830FC004920CD
:0401D800000008001B
:0E01DC001D3083120313FD00FD0BF2280800F6
:1001EA00710DF80DF90D7408F8027508031C750FE6
:1001FA00F902F00DF10D0F30FC00710DF80DF90D3B
:10020A007408701C0E29F8027508031C750FF90290
:10021A001329F80775080318750FF907F00DF10D82
:10022A00FC0B022970181F297408F80775080318AF
:08023A00750FF9070000080030
:100242008312031372087606A000F801F9017308FD
:100252007702031C44297708FD007308F7007D0824
:10026200F3007608FD007208F6007D08F2007508BA
:10027200FD007108F5007D08F1007408FD007008AA
:10028200F4007D08F00077080319BD297208FA000E
:10029200F217F61777087302F70003197729083067
:1002A2007702031C6D29F7007408F9007508F40041
:1002B2007608F500F60108307702031C6D29F70075
:1002C2007408F9007508F400F50108307702031C80
:1002D2006D297A08F200BD297708031977290310DE
:1002E200F60CF50CF40CF90CF70B7029A01F8429FD
:1002F200F909F409F509F609F90A0319F40A0319C7
:10030200F50A0319F60A7908F80774080318740F36
:10031200F00775080318750FF10776080318760FB2
:10032200F207A01B9D29031CAD29F20CF10CF00C65
:10033200F80CF30FAD29B9290318B129F809F0090E
:10034200F109F209F80A0319F00A0319F10A03196B
:10035200F20A8030FA06B5290130FC009420BF2948
:100362000230FC009420BF290430FC005520BF2934
:100372000830FC004920BF290030FC0000000800C2
:10038200C730831203139F052208F000F00D70108E
:10039200F00D7010F00D701070089F04EE201F1504
:1003A2001F1DD5290000D1291E08F100F001831676
:0A03B2001E08F0040030F1040800FA
:1003BC00831203137008F8007108F000F101F201C8
:1003CC00F301FB01FC019630F300FA01F01FF42954
:1003DC00F809F009F80A0319F00AFA177008F10085
:0C03EC007808F000F801F201552008002C
:1003F800831603139818022A0000FC2983125D084B
:04040800990008004F
:10040C00831603139816903083129800831687175F
:10041C00071383128C1E152A1A08F0000F2A0800E5
:10042C0083120313FB0173080319532A7208FA0091
:10043C00F2178E30F302F31F562AF309F30A083031
:10044C007302031C392AF300F10D7208F100F2015A
:10045C0008307302031C392AF300F10DF101730803
:10046C00031D0310412A73080319412A0310F20CCF
:10047C00F10CF30B3C2A7B1B711C4B2A031C4B2AE3
:10048C00F10A0319F20AF21B622AFA1F652AF20911
:10049C00F109F10A0319F20A652AF201F101652A40
:1004AC007B14FB1F682AF201FA1F682AFF30F20046
:1004BC00F100FA0DF20C682A0130FC006A2A0030B7
:1004CC00FC006A2AFF30FC00FC0803196E2A842009
:0A04DC007108F0007208F10008003A
:1004E600831203137408003A031D8E2A7508003A16
:1004F600031D8E2A7608003A031D8E2A7708003AD5
:10050600031D8E2AFF30F000FF30F1007F30F2002D
:10051600FF30F300292B83120313770803191D2BD1
:1005260073080319202B720876068039FA00F21731
:10053600F617A0017208F8007108FC007008FD00AB
:100546007408FD027508031C750FFC027608031C6F
:10055600760FF802F801FC01FD01031CB92A03100D
:10056600F20CF10CF00CF80C0130A0007708F30245
:10057600031CC32A7E302007F3070318232BC82A3F
:100586007E302007F307031C262B1830FA07FD0DD3
:10059600FC0DF80DF00DF10DF20DA00D7408F00232
:1005A6007508031C750FF1027608031C760FF2021C
:1005B600760DA004201CE12A7D14EC2A7408F007AD
:1005C60075080318750FF10776080318760AF207FF
:1005D6007D10FA031F307A05031DCA2A7B1B7D1C7A
:1005E600132B0310F00DF10DF20DA00D7408F0029F
:1005F6007508031C750FF1027608031C760FF202CC
:10060600760D20040139FD070318FC0A0319F80AC0
:10061600031D132BF80CFC0CFD0CF30A0319232BFA
:10062600FA1FF8137808F2007C08F1007D08F00044
:100636000030282B01309120282B02303220282B25
:0E06460004304920282B08303920000008001D
:0E065400831203134D088A004C088200080030
:10066200831203137408003A031D402B7508003AE5
:10067200031D402BFF30F0007F30F100992B8312D5
:100682000313FD01F901F801710870040319003424
:1006920071087506FA00FA1BFD09FB01F51F562BBE
:1006A200F409F509F40A0319F50AF11F5D2BF009A3
:1006B200F109F00A0319F10A71087504FA00FA1B2C
:1006C200722BF5207B18852BFD1F0034F009F109F0
:1006D200F00A0319F10AF809F909F80A0319F90AE3
:1006E2000034F51F812BF11B7D2B7108F900700876
:1006F200F800F101F001652BF101F001F00A00347C
:10070200F109F009FB0A622BF80A0319F90A7408C5
:100712007802031D652B75087902031D652BF9010B
:10072200F801F00A0319F10AF11F652B0000FF34EA
:020732000800BD
:10073400103083120313F4002730F5005508F0003D
:100744005608F10031230A30F4000030F50031235B
:100754007808F0007908F10030307007DB00E830E9
:10076400F4000330F5005508F0005608F100312379
:100774000A30F4000030F50031237808F0007908DD
:10078400F10030307007DA006430F4000030F50016
:100794005508F0005608F10031230A30F400003007
:1007A400F50031237808F0007908F1003030700743
:1007B400D9000A30F4000030F5005508F00056085E
:1007C400F10031230A30F4000030F50031237808B9
:1007D400F0007908F10030307007D8000A30F400D6
:1007E4000030F5005508F0005608F1003123780870
:1007F400F0007908F10030307007D7005408DD00AC
:10080400FC213A30DD00FC215B08DD00FC215A08A4
:10081400DD00FC215908DD00FC215808DD00FC2125
:0E0824005708DD00FC213B30DD00FC21080000
:1008320083120313D801D901DA01DB013508003C28
:10084200031D252C3408073C0318292CB401B501DB
:100852003408F000F00D70107008243EDC005408DB
:10086200A200C12183125C08840070088000710814
:10087200840A8000D601D70180305706F00080300C
:100882007002031D462C0830560203186E2C5608BF
:10089200F0005708F100F00DF10D70102430F00750
:1008A200700884000008F000840A0008F100DE21CC
:1008B2005808F4005908F5005A08F6005B08F700DA
:1008C20021217008D8007108D9007208DA00730873
:1008D200DB00D60A0319D70A3D2CB40A0319B50A5C
:1008E2000030F4000030F5000030F6008230F700EE
:1008F2005808F0005908F1005A08F2005B08F300AA
:060902007322162208001A
:10090800F0308B006330831203138100C7308316E5
:10091800810007309C00813083129F008D30831640
:100928009F00DB308500FF3083128500FF30860092
:0C0938006730831699001815062208008D
:1009440083120313D801D901DA01DB013708003C13
:10095400031DAE2C3608073C0318B22CB601B701B0
:100964003608F000F00D701070083A3EDC005408B0
:10097400A200C12183125C08840070088000710801
:10098400840A8000D601D70180305706F0008030F9
:100994007002031DCF2C083056020318F72C56089A
:1009A400F0005708F100F00DF10D70103A30F00727
:1009B400700884000008F000840A0008F100DE21B9
:1009C4005808F4005908F5005A08F6005B08F700C7
:1009D40021217008D8007108D9007208DA00730860
:1009E400DB00D60A0319D70AC62CB60A0319B70ABC
:1009F4000030F4000030F5000030F6008230F700DB
:100A04005808F0005908F1005A08F2005B08F30096
:060A140073221622080007
:100A1A002A238A110A128000840ACC0A0319CD0AF1
:080A2A00F003031D0D2D08006F
:100A3200842583120313D001D101D201D30184246E
:100A4200231C542D2310D401D50119247008D2007F
:100A52007108D3000130D4000030D500A224700800
:100A6200D0007108D1005630D4005208D500530886
:100A7200D6009A234930D4005008D5005108D60038
:100A82009A23A31C4E2DA3105230D4003808D5004F
:100A92003908D6009A23B801B9010D30DD00FC21D6
:0A0AA2000A30DD00FC21212D552D46
:100B080023308400293083120313F0005B30CC00BB
:080B18000530CD000D25080099
:020AB60000340A
:100AB800003400340034003400340034003400348E
:100AC800003400340034003400340034003400347E
:040AD80000340034B2
:040ADC0000340034AE
:040AE00000340034AA
:100AE4000034003400340034003400340034003462
:100AF4000034003400340034003400340034003452
:040B04000034003485
:02400E004A2F37
:00000001FF
